:020000022000DC
:1060000050060120C1B10200FF3C0500ADB1020005
:10601000ADB10200ADB10200ADB102000000000060
:10602000000000000000000000000000D1B20200EB
:10603000ADB102000000000041B20200ADB10200AB
:10604000E1B402003DD40300E1B40200E1B4020077
:10605000E1B40200E1B40200E1B40200E1B40200E4
:10606000E1B40200E1B40200E1B40200E1B40200D4
:10607000E1B40200E1B40200E1B40200E1B40200C4
:10608000E1B40200E1B40200E1B40200E1B40200B4
:10609000E1B40200E1B40200E1B40200E1B40200A4
:1060A000E1B40200E1B40200E1B40200E1B4020094
:1060B000E1B40200E1B40200E1B40200E1B4020084
:1060C000E1B40200E1B40200E1B40200E1B4020074
:1060D000E1B40200E1B40200E1B40200E1B4020064
:1060E000E1B40200E1B40200E1B40200E1B4020054
:1060F000E1B40200E1B40200E1B40200E1B4020044
:106100007BB972B90029BEBF00204FF0004106E004
:1061100008BF00281CBF6FF000414FF0FF3000F0B7
:1061200057B8ADF1080C6DE904CE002909DB002B4E
:106130001ADB00F069F8DDF804E0DDE9022304B0C1
:106140007047404261EB4101002B1BDB00F05CF823
:10615000DDF804E0DDE9022304B0404261EB4101D7
:10616000524263EB43037047524263EB430300F038
:106170004BF8DDF804E0DDE9022304B0404261EBB6
:1061800041017047524263EB430300F03DF8DDF8F4
:1061900004E0DDE9022304B0524263EB430370479D
:1061A00053B94AB9002908BF00281CBF4FF0FF317E
:1061B0004FF0FF3000F00CB8ADF1080C6DE904CEE3
:1061C00000F022F8DDF804E0DDE9022304B07047B6
:1061D000704700BF10F8012B11F8013B012A28BFBE
:1061E0009A42F7D0D01A7047034611F8012B03F8F2
:1061F000012B002AF9D17047034613F8012B002A1E
:10620000FBD1181A013870472DE9F04786468C46B5
:106210000846089E154674461946002B40F0C28079
:106220008542B2FA82F245D94AB1C2F1200300FA9E
:1062300002FC2EFA03F3954043EA0C0C94404FEA1B
:10624000154EA8B2BCFBFEF8230C0EFB18CC08FBC5
:1062500000F943EA0C43994528D9EB1808F1FF37B8
:1062600004D2994502D9A8F102072B44A3EB0903F4
:10627000A4B2B3FBFEFC0EFB1C330CFB00F044EAA3
:106280000344A04214D92C190CF1FF3304D2A042CC
:1062900002D9ACF102032C44241A43EA07401EB190
:1062A000D440002334607360BDE8F0874746DDE7E3
:1062B0006346F1E792BB431B01214FEA154EAFB293
:1062C000B3FBFEFC200C0EFB1C330CFB07F840EA72
:1062D0000343984562D9EB180CF1FF3004D298457E
:1062E00002D9ACF102002B44A3EB0803A4B2B3FB28
:1062F000FEFC0EFB1C330CFB07F744EA0344A742E9
:106300004ED92C190CF1FF3304D2A74202D9ACF1BB
:1063100002032C44E41B43EA0040C0E7C2F120031F
:1063200020FA03F1954090402EFA03F303434FEA1D
:10633000154EAFB2B1FBFEFC0EFB1C10190C0CFB92
:1063400007F841EA0041884504FA02F422D96918A5
:106350000CF1FF3004D2884502D9ACF10200294487
:10636000A1EB08019BB2B1FBFEFC0EFB1C110CFB68
:1063700007F743EA01439F420ED9EB180CF1FF31B6
:1063800004D29F4202D9ACF102012B44DB1B41EA4B
:10639000004192E76046E3E76146F7E76046A3E71E
:1063A0006346B7E7834206D916B9002108467BE762
:1063B000C6E900E0F9E7B3FA83F78FB9834201D366
:1063C000724508D8BEEB020460EB030301209C4633
:1063D0001EB9002168E73846FAE7C6E9004CF8E73D
:1063E000C7F1200CBB4022FA0CF41C432EFA0CF12E
:1063F00020FA0CF3B84001434FEA14490EFA07F5AE
:10640000B3FBF9F81FFA84FE09FB18300B0C08FBEC
:106410000EFA43EA00439A4502FA07F240D9E3181C
:1064200008F1FF3004D29A4502D9A8F102002344B2
:10643000A3EB0A0389B2B3FBF9F809FB183308FB95
:106440000EFE41EA03418E452CD9611808F1FF3355
:1064500004D28E4502D9A8F10203214443EA004048
:10646000A0FB0298A1EB0E014145CE46434602D364
:1064700006D14D4504D2B9EB020E68EB0403013896
:10648000002EA6D0B5EB0E0261EB030101FA0CFC65
:1064900022FA07F34CEA0303F940C6E9003198E712
:1064A0004046C5E74346D9E7F7B5002101AA40F6C3
:1064B000034006F05BF80446002869D10198C368E0
:1064C0001B788BB9BFF35B8FB94B1A68BFF35B8F37
:1064D00002F00902BFF35B8F53E8001F43E800247A
:1064E000002CF9D1BFF35B8F05F05EFA01AA002101
:1064F00041F2030006F03AF80446002848D1019A18
:10650000AC4DD168D1F80100D1F8051005F1780340
:1065100003C3104605F048FA214601AA41F20100E2
:1065200006F024F8044698BB0198C3685A7885F8A9
:1065300070205A88A5F872201A7985F87120B3F86E
:106540000720A5F87420B3F80530A5F8763005F0DB
:106550002BFA214601AA41F2020006F007F8044690
:10656000B0B9019FFA6805F18006531C41321868E2
:106570005968344603C4083393422646F7D1384657
:1065800005F012FA95F87C305B0604D46FF0120423
:10659000204603B0F0BD01AA002142F2030005F03D
:1065A000E5FF04460028F3D1019B834EDA68D2F858
:1065B0000100D2F8051003C6184605F0F5F921468A
:1065C00001AA42F2020005F0D1FF04460028DFD103
:1065D000019CE368B3F8012091B249B1D97839B18F
:1065E000A5F80421DA78114606F1280043F094FC5E
:1065F000204605F0D9F995F87C601F2316F0200697
:10660000A5F8203118D1022140F66D4005F030FE8A
:106610000446002800F0C48002210C302DF01FFC3D
:106620000123037046702146324640F66D4005F066
:106630009DFF04460028ABD195F89C301F0712D56A
:1066400001AA002142F21C0005F090FF0446002838
:106650009ED10198C368D3F80120D3F80530C5E96D
:10666000382305F0A1F995F8D8309E0624D50DF110
:10667000020168462EF03EF80446002888D1042125
:1066800042F2240005F0F4FD0646002800F0888060
:1066900004210C302DF0E3FBBDF800300380BDF881
:1066A000023043802246314642F2240005F05EFF6C
:1066B000044600287FF46CAF95F8D8305C0610D5FE
:1066C00001AA002142F22A0005F050FF04460028EA
:1066D0007FF45EAF0198C3685B7885F8223105F0DE
:1066E00063F9082142F2010005F0C2FD04460028CA
:1066F00056D008210C302DF0B2FB95F8D81011F0CF
:10670000400F024640F2022308BF032388074CBF14
:1067100043F02C0043F00C0095F8D9308F0648BFA9
:1067200040F0400013F0090F18BF40F40060CE079E
:1067300048BF40F0100000212DF00DFE2146002240
:1067400042F2010005F012FF044600287FF420AF5A
:1067500095F87C30B5F80411980624D4C9B901AA7B
:1067600041F2050005F002FF044600287FF410AF57
:10677000B5F80431019C4BB9E368B3F80120A5F8E2
:1067800004219A880D48114643F0C6FB204605F0C7
:106790000BF9082140F6014005F06AFD044678B97E
:1067A0006FF06804F4E60029F3D16FF00404EFE61B
:1067B000D400002000000020D800002008010020A4
:1067C00008210C302DF04BFB95F8D830D907024644
:1067D00053BF4FF000512CA1D1E9000128482DF002
:1067E000BAFD2146002240F6014005F0BFFE0446F6
:1067F00000287FF4CDAE014601AA4FF6014005F016
:10680000B5FE044620BB019805F0CEF8214601AA4A
:106810004FF6024005F0AAFE0446C8B90198C368C5
:10682000B3F80130A5F8C13005F0BEF895F8C130D5
:106830005B070DD501AA21464FF6034005F096FEF1
:1068400030B90198C3685B7885F8C03005F0ACF8C2
:106850002EF027F9044600287FF49AAE07F0F2FEE6
:10686000044600287FF494AEEB79002B3FF490AE01
:10687000082104482DF0A9FC05F0C8FD88E600BFFA
:1068800010880002D40000209088000200800020C0
:106890002DE9F843D0E90738856903EB08042F3464
:1068A000A5420F46164619D8DFF87080A3FB0801F1
:1068B00017A3D3E90023FFF773FC0346601BA0FB7B
:1068C000080123F07F4412A3D3E90023FFF768FCFB
:1068D00020F07F403C603060BDE8F883DFF83C90FA
:1068E0000BA3D3E90023A5FB0901FFF759FC20F016
:1068F0007F4409480A2106A3D3E90023E8FB0901E4
:10690000FFF74EFC20F07F403C603060BDE8F8832C
:106910008D49FD1A0700000000166BF100CA9A3B72
:106920009FED097B0E4B0F4A0F4983ED007B9FEDD6
:10693000087B82ED007B9FED087B0C4B002281EDF4
:10694000007B1A600EF0C4B8FFFFFFFFFF1F0000BE
:1069500000000000000000001F0000000000000018
:106960009001002000180020880100202C860020C3
:10697000002800F046812DE9F04FC94C94F86A20B8
:1069800012F001058DB040F0788194F82500FF23C6
:1069900000F0030084F8263016F02AF994F86A0013
:1069A000420727D494F8292094F8353004EB82026A
:1069B00004EB8303D66AD3F8388086B1B8483146F1
:1069C0000FF060FE33785B0605D506210BF014F856
:1069D000002800F05481B24841460FF053FE33784E
:1069E00013F00E0F40F09E80236A93B10C200DB07F
:1069F000BDE8F08F2A4604F16B01C0F3C00016F029
:106A00006FFAFF2884F82600CCD0284616F00AF941
:106A1000C8E70DF035FB8146002800F054810DF0E9
:106A20003BFB8246002800F04B8110F029F9054617
:106A3000002800F04A81D0F894004FF6FF732B86AF
:106A400005F11C0B002800F0208105F1880205F1FA
:106A500084010AF0DDFFB5F8823023F4EF6323F000
:106A6000070343F48C7343F00103A5F8823095F8D3
:106A7000433003F03F0363F07F0385F8433095F81C
:106A80009A3023F0070385F89A3095F8483023F0C0
:106A90000F03002785F848304FF4C023C5F898311C
:106AA0002846C5E91577C5F89470A5F8987085F85B
:106AB0004570EF86C5F83A70EF65A5F89E71A5F8A8
:106AC000947112F04DFA85F86071C5F8649110F078
:106AD0008BFB95F8A43160F3020385F8A43110F024
:106AE00089FB95F8A43160F3C50385F8A43195F8C6
:106AF000903167F3410385F890310121284610F069
:106B000091FF05F1E00012F003F8C4E9189AC4F807
:106B100020B0C5E905772F70ED6117F0C3FA0028A2
:106B200040F0AF8094F824300121C3F342030DF10B
:106B30002B008DF82B300BF009F90246002862D0AB
:106B400098F8011030460FF057FB31235549A360E8
:106B5000554BB4F86870A0FB01010025C01841F145
:106B600007014DA3D3E90023C4E9055525706560ED
:106B7000E560FFF715FB20610CF0A8FB00F10908A8
:106B80003FB9357805F00F05A5F10105B5FA85F592
:106B90006D0994F82400236965F3000010F00105E5
:106BA00084F8240036D0414A099200201060022562
:106BB0003F4A404F04930BAE019305920321CDE968
:106BC0000200069443460090089607972A460B95C4
:106BD0000CF07EFA31460DF00FFBA0B93649059155
:106BE0004AF2D8330093CDE90300CDE901000797BD
:106BF000089606944346012203210B950CF04CFAAB
:106C00002EE00FF049BA236A002B3FF4EFAE0FF0ED
:106C1000FFF9EBE6254A2948049303F2471306944B
:106C2000029591211360A7FB000301FB0731214B63
:106C300007931F4B05934FF6FF73099202270393A7
:106C40000BAE15A3D3E900230B970896FFF7A8FA1C
:106C50004346CDE900503A46284603210CF038FA65
:106C600031460DF0C9FA0028CDD194F86A300120E0
:106C7000034384F86A3015F09DFF0020B7E6122028
:106C8000B5E60FF0C5F90320B1E605F18C00C5F8B3
:106C90009400DAE6AFF300808D49FD1A070000008A
:106CA0006486002000CA9A3B8C49FD1A5886002051
:106CB0007562030031340300595D0300002AE78444
:106CC00048460DF0E3F9072091E650460DF0EAF949
:106CD00048460DF0DBF9F6E770B590F824308AB03D
:106CE000C3F342030D46044601210DF1230016466D
:106CF0008DF823300BF02AF87178024628460FF001
:106D00007BFA1F491F4AA0FB0131981841F1070186
:106D100019A3D3E90023FFF743FA236998420546F4
:106D200021D21B1A00220192174A0293174BA21A72
:106D3000A3FB02320221920900230A4409AE099101
:106D400013490591CDE903330321D2B2069600938E
:106D500018460CF01DFA31460DF04EFA38B925618F
:106D600000200AB070BDFBD9C21A0023DBE70C205B
:106D70000AB070BDAFF300808D49FD1A0700000016
:106D800000CA9A3B8C49FD1A6486002009CB3D8DD0
:106D900031340300000000002DE9F04F06468DB0AD
:106DA0008A46012002219946154619F019F9002258
:106DB0000B90022101200AF07BFE3B494FF4D87270
:106DC00030460AF005FEC71C384B0093FFB201960F
:106DD0004B463A46012100200CF034FA10F0FD0F2A
:106DE0000ED0334A3349344840F68F032BF0A0FFCE
:106DF000002383F31188BFF36F8F0323184602DF4C
:106E00002E4CA5FB044526A3D3E9002320462946A2
:106E1000FFF7C6F90896069633690493284B20F0CD
:106E20007F48A8FB0331E01A264B07934FF0070277
:106E3000254B059302FB08114FF6FE7365EB01012C
:106E400003934FF47A720023FFF7AAF94FF0000B77
:106E5000CDE90180CDF800A04B463A4601215846C5
:106E60000CF01AF910F0FD0F0DD0114A114912481B
:106E700040F6A4032BF05CFF8BF31188BFF36F8FF8
:106E80000323184602DF0B9B13B90DB0BDE8F08F4A
:106E90000122022110460DB0BDE8F04F0AF008BEF5
:106EA0008D49FD1A0700000008180020216C03001E
:106EB00024C50600E8C5060004C0060000CA9A3BC7
:106EC0008D49FD1AC16B0300E5C0030000000000FE
:106ED0002DE9F0418468228E4FF6FF739A428CB000
:106EE00045D00546204612F0D9FA2B7D012B00F043
:106EF0002281022B00F01581002B00F0F48094F821
:106F00006061002E40F010812B8A678F94F9432036
:106F1000CDE90A6673B3002AC0F25A810023A4F8AF
:106F20009A31AA7C238FFD1802F003030135012B4F
:106F3000ADB23BD0B4F89E31002B00F005819D42EC
:106F400080F059815B1B9BB20022062BA4F89E3176
:106F5000628740F2F68094F943309342C0F2508148
:106F6000002326E09DF82710204610F021FA0CB0EF
:106F7000BDE8F081002AB8BF84F88561238FAA7C20
:106F8000FD1802F003030135012BADB20ED0B4F8A9
:106F90009A31002BCED0AB4240F23C815B1BA4F86F
:106FA0009A31B4F89E31002BC9D102E00023A4F835
:106FB0009E3194F8482063F3820284F848202946E1
:106FC0000DF12702204612F007F87430CAD0B4F849
:106FD00098312BB1AB4240F2EC805B1BA4F89831A6
:106FE000B4F894312BB1AB4240F2DA805B1BA4F8C9
:106FF0009431658F16B9AF4200F0C9800135ADB24A
:1070000094F8DD3013F0010731D1DDE90A130A46A7
:10701000002B40F0CC80002900F0BB801F461846B2
:10702000228EE4690694CDE9035603329A4D02900C
:10703000CDE90017D2B20121002005950CF0A8F887
:1070400010F0FD0F93D00DF001F984428FD0934AD8
:10705000934994484FF4AE632BF06AFE002383F308
:107060001188BFF36F8F0323184602DF7FE794F97F
:1070700043206FF30003002A84F8DD307FDB94F8AF
:107080008200C0F3C00100F0070016F023FEB4F840
:107090007A20B4F878301344628D03F23F1313441E
:1070A0000344814A81480721E3FB0021104678A36D
:1070B000D3E90023FFF774F8DDE90A1320F07F42DB
:1070C00020692261904235BF171A801A00200027DC
:1070D0000A46002BA4D157EA010CA1D1002858D0B0
:1070E00019461F469CE794F89A3003F01803182BB2
:1070F0007FF405AFA18EB4F896218B1D9A42C4BFD0
:10710000931F5B1AB4F89211CCBF9BB213469942FD
:1071100000F09C80A4F89231A4F89431A4F898214E
:10712000EDE63D2684F86061314620460CB0BDE8AE
:10713000F04110F03DB90023A4F89831A4F894313F
:10714000DDE60126334634E7628E052A97BF013219
:1071500040F2E2434FF4FA7392B203FB02F2B4F846
:107160009C3142F2107101FB0323013BB3FBF2F3AC
:107170009BB2A4F89E31002B7FF4E1AE19E794F89E
:107180008300012100F0070016F0A6FD7FE73546D9
:1071900036E7002D43D00027114638463B463FE7EF
:1071A0000023A4F89431204611F0B8FF21E73846B7
:1071B00036E70CF0B7FF0146A0B30023A4F89831DE
:1071C000238EC3801B23037100680CF07DFF07E74B
:1071D00094F885316BB3013B84F8853104F1E00804
:1071E000404611F0D7FCB8B3404611F0D3FCB8B319
:1071F0000023638792E60821204610F0D9F8B6E60E
:10720000A7B9D4F888315A0813F0010336D1C4F86D
:107210008821A5E63E21204610F0CAF8A7E6002EF8
:10722000B9D1A4E60123A4F89831D9E61346012682
:10723000BFE60AAA0BA92846FFF72AFBDDE90A23C5
:107240001343CBD0237884F88531C7E7B4F898117D
:1072500000297FF454AE5FE7FF2010F06BF8C3E71E
:107260000246D4E921010AF0EBFB0028C0D194F8D2
:1072700048301B0744BFA38E63874FE642F00042AD
:107280001E46C4F888213B4693E600BFAFF300805A
:107290008D49FD1A070000007D6B030024C5060020
:1072A00064C6060004C006008C49FD1A00CA9A3B59
:1072B0002DE9F04F87B0CDE90423BDF844200378D1
:1072C0000292BDF84820BDF840A0BDF84C90878FD1
:1072D000019104460392002B00F0D480013FBFB21D
:1072E000A368D4F81CB1A7EB090292B2002B00925C
:1072F0000ADAE168626823F0004391422CBF8B44B4
:107300009344A360ABEB030B94F88200C0F3C0017D
:1073100000F0070016F0DEFC658E052D40F2AA8015
:10732000009B15FB03F5ADB240F2E248BAF1050F40
:1073300040F29480B4F87A20B4F87830134403F221
:10734000D51303447A4A7B480721E3FB00214FF021
:107350009613A36296231046A38573A3D3E9002353
:10736000FEF71EFF564620F07F4040F2E24308FB46
:1073700005F103FB06F6B1FBF6F81FFA88F520616C
:1073800006FB05F08142A8465AD2401A694966A315
:10739000D3E90023A0FB0101FEF702FF20F07F40AC
:1073A0008344E38EB4F824211344994494F8433081
:1073B000A9EB0709C844DB09A4F8368069D15E4A05
:1073C0005E495F4840F667132BF0B2FC002585F359
:1073D0001188BFF36F8F0323184602DF3746029BE5
:1073E000A386039BA4F89C3131462046A4F832A022
:1073F00011F02EFE534BA18E3344881DB3FBF6F3E0
:107400009AB29042A4F8962104D2C1F57F41FA3194
:107410000A4492B2019BA4F8922113B10023A4F86C
:107420009E315B463A4629462046FFF7B5FC94F864
:10743000903143F0010384F8903107B0BDE8F08F3C
:10744000091A3C4838A3D3E90023A1FB0001FEF749
:10745000A7FE20F07F40ABEB000BA2E74FF09613A6
:107460000AF10106A3629623A385B6B20A204FF45F
:10747000FA737CE7009B013515FB03F5ADB24FF4C1
:10748000FA7853E7C38E1F44B0F824311F44BFB2CB
:1074900026E7E26C0099636D02FB1133636516F019
:1074A00051FE074694F88401C0F3420016F04CFEEA
:1074B000074406FB07F7244B07F5742707F23F271D
:1074C000A3FB0737BF0C636DE76405FB07F0720889
:1074D0000344963A934228BF1346C4E91423049BFD
:1074E000144D40F2E24808FB03F3E3650023A0FBE0
:1074F0000501C4F88C310CA3D3E90023FEF750FE3C
:10750000124B059AABEB000BA3FB0230800A08FB81
:1075100000F0A0FB050104A3D3E90023FEF740FE21
:10752000F71B20F07F455AE78D49FD1A0700000040
:107530008C49FD1A00CA9A3B24C50600DCC006002F
:1075400004C006007FC3C90183DE1B435917B7D1AE
:107550002DE9F04F0B6891F81180D3F80090037F6C
:10756000176895B00446C3F38013D0F81E008DF859
:107570003F30B8F1FF0F638C12900E461546ADF800
:107580004C300DF1480A4DD19AE803001090ADF847
:1075900044102346E28D53F82EBB9B78AB722A81B0
:1075A000D4F82A306B60D4F83A30C5F8223005F1AF
:1075B000220094F83E30037105210AF0C7FB95F8CC
:1075C000273000F03F0060F3050385F8273094F87A
:1075D0003F30C3F3040285F82820A28EEA820128F6
:1075E00003F01F0392B205D91B3303F01F030B2BCB
:1075F00000D81ABB0022C9F8142095F82C3062F389
:10760000000385F82C30E56801265846214626718E
:107610000CF04EFD28682E7129460CF055FD15B072
:10762000BDE8F08F10AA0DF13F01404615F068F853
:107630009DF83F3002338DF83F30AAE733680021D0
:107640005960E38EEA8A2B8340F2E24303FB02F2A5
:107650000B92628E0D92384611F00EFD94F83F2089
:1076600097F88411520962F3430187F8841116F0E8
:1076700069FD0C9097F88401C0F3420016F064FD98
:107680000C9A0B99104401FB00F0BF4A00F57420DE
:1076900000F23F20A2FB00204A08800C963A2863A3
:1076A0006A6394F8312040F2E24302FB03F36B6417
:1076B000238FA7F89C31384611F0CAFC0B99B34BC5
:1076C000B34AC7F8A0210B44B3FBF1F39AB2A7F871
:1076D0009621298B881D824204DDC1F57F41FA3154
:1076E0000A4492B2A7F892216B68C7F88831234602
:1076F00013F81C2FC2F340120C92DA0700F101813B
:107700004FF48073A38399F8260015F0FDFC04F173
:107710002B03002800F0F180626AC4F82B20228D30
:107720009A80B8F1FF0F00F00F81BAF80430129878
:10773000A4F82930C4F825009DF83F30A3771098AD
:10774000BDF84430C4F81F00A4F82330EB8A6386E8
:107750002B8BA386B7F89C31E38697F88431C3F36B
:10776000420384F8383038460FF096FAA882E08059
:107770002146584674680CF09BFCAB8AE3801C23BE
:1077800023710C9BD4F80080002B40F0D1800C9B1F
:107790002377214640460CF097FC95F86700B5F832
:1077A0005C80B5F85E40012100F0070016F094FA05
:1077B000444404F2D514DFF8E48104448246754859
:1077C0004FF096130721C5E90333E4FB0801312389
:1077D0000024BB607C606AA3D3E90023FC60FEF751
:1077E000DFFC20F07F4038610B9B2D6B0D995D1BFA
:1077F000F36840F2E24202FB013303F2B341A1EB32
:107800000A0A2246022101200AF052F948460EF0E7
:10781000F5FE0246AAFB0801924659A3D3E90023CC
:10782000FEF7BEFCCDF80490B3685B49009120F0F0
:107830007F480AF102023A3BD2B24344012120467A
:107840000BF000FD012800F0858099F82430DB075B
:1078500066D438460FF020FA504BA5FB03A9044626
:1078600047A3D3E9002350464946FEF799FC4C4B09
:10787000B6684C4A079220F07F45A5FB0331BAEB6E
:107880000300494B05934FF4F573069708933B6942
:107890004FF0000BCDE903B34FF0070303FB0511D5
:1078A00069EB01014FF47A720023FEF779FC03348F
:1078B0003A3EE4B2CDE90150CDF80080334622468D
:1078C000012158460BF0E8FB10F0FD0F0DD0374AB0
:1078D0003749384840F2EB132BF02AFA8BF3118822
:1078E000BFF36F8F0323184602DF012202211046E7
:1078F0000AF0DEF815B0BDE8F08FC4F82B009880D0
:107900000FE72A4A2C492B48FD232BF011FA0023BC
:1079100083F31188BFF36F8F0323184602DFEFE66E
:10792000002301220093184611460BF049FC90E712
:1079300095F8273043F0400385F82730281D14F0D0
:10794000E9FC0123288523E70022C4F82520A4F8B8
:107950002920F1E60CF07AFC81453FF476AF134A1A
:107960001649144840F292232BF0E2F984F311886F
:10797000BFF36F8F0323184602DF66E7AFF3008083
:107980008D49FD1A0700000083DE1B437FC3C90138
:10799000404B4C008C49FD1AA5C0030000CA9A3B1D
:1079A0008D49FD1A71C00300E5C0030044CB0600F9
:1079B000E8C5060004C00600F8C20600A0CB060019
:1079C00010B5334C3349002304F1FF3C14F8332045
:1079D000072A02EB820E05D811F83E206FF34512FC
:1079E00001F83E201CF833206FF300020CF833201E
:1079F0000133082BEAD1284A284C002313700A7857
:107A000063F300020A7091F8282063F3000281F802
:107A1000282091F8502063F3000281F8502091F85B
:107A2000782063F3000281F8782091F8A02063F3B6
:107A3000000281F8A02091F8C82063F3000281F8C9
:107A4000C82091F8F02063F3000281F8F02091F84B
:107A5000182163F3000281F81821114A9FED0A7B77
:107A60001370104B83ED007B0F4B236028B1BDE8F2
:107A700010400E490E4842F01FBBBDE810400C48B4
:107A800042F026BBAFF30080FFFFFFFFFFFFFFFFC9
:107A9000458D0020048C0020DFC60020148B0020C0
:107AA000DEC60020E8190020A0BB0D0019CE03009F
:107AB000B8190020000000002DE9F04F8FB00DF143
:107AC00037010446DFF8E0A0DFF8E0800DF1360072
:107AD0000CF06AFB9DF836309DF837B00B930BF035
:107AE000F5FBDAF80060A6FB085629A3D3E90023CA
:107AF0000027814631462846FEF752FBCDE907773D
:107B0000069420F07F44DAF80400234B0593A0FB91
:107B100008011FA3D3E90023FEF742FB1F4B20F00F
:107B20007F40A4FB0331072202FB0411CDE903705F
:107B3000E81A66EB01014FF47A720023FEF730FB7E
:107B40000097CDE901404B460B985A4603210BF0B4
:107B5000A3FA10F0FD0404D06FF08B000FB0BDE865
:107B6000F08F0F480F4A002328F080F920B9DAF887
:107B70000C000FB0BDE8F08F9DF837209DF836005F
:107B80000094234603210BF01BFB6FF07300E5E725
:107B90008D49FD1A07000000C5D303008D49FD1A69
:107BA000B88D0020447B0B00D08D002000CA9A3B8A
:107BB00038B50F4D04460BF089FBA9680BF088FB24
:107BC000696803460B48B3FBF4F4A1FB00011C44B5
:107BD00005A3D3E90023FEF7E3FA20F07F408442B7
:107BE00094BF0020012038BD8D49FD1A0700000018
:107BF000D08D002000CA9A3BF0B5C468636883B09A
:107C00000546002B64D117F06BFD082017F08EFDA0
:107C10000021084617F07CFD00222521082017F0DE
:107C2000B9FD474B019301A817F0A0FD454940F26B
:107C30005B6017F051FE237AC3F3420262F306132E
:107C40002046237216F09CFC15F03AFB58BB637A71
:107C50009B071FD127682E68384615F0D7FF0644CA
:107C60006A6806F10901012017F07EFF18F03CF860
:107C700020460EF0CFFC811C3246C9B2384615F0C2
:107C8000D3FF054678BB204615F068FF88B9002071
:107C900003B0F0BD012014F081FF4178821C007810
:107CA00017F002FFD6E7607A10F0030018BF01203A
:107CB000F1E7254A2549264840F229432BF038F8B8
:107CC00085F31188BFF36F8F0323184602DFDEE7C9
:107CD00093F82C309A0796D01E48214617F0BEFC28
:107CE00017F0A4FDD3E7184A1B49194840F2114385
:107CF0002BF01EF8194B0721A5FB030301FB0531EF
:107D00000DA3D3E90023FEF74BFA154902461548A7
:107D10002BF00EF8002585F31188BFF36F8F032336
:107D2000184602DF1048214617F098FC17F07EFD38
:107D30006FF08B00ACE700BF00CA9A3B0000000068
:107D4000D6BE898E555555009CCF0600D8C1060079
:107D500004C00600B9DD0300DCC006008D49FD1A31
:107D60004CD0060020D0060055E1030000000000C2
:107D70002DE9F041C468A28A4FF6FF739A4282B09F
:107D800000F0DF80054616F03FFF2B89628B208CC8
:107D9000A3831A4492B2104494F82730E28380B24D
:107DA000411C21845E064FF00001618304F1220131
:107DB00000F1A18003F03F000B4694F828100090DA
:107DC00004F1290014F05EFA0646D4E90C31A28BC6
:107DD00002FB0333A26B1344E26B8B4294BFD218B5
:107DE00052188A4228BF0A46E263616C226C94F8FA
:107DF00067301144616494F87E2094F82C10C3F32A
:107E0000020363F3061112F004024FF0000384F83A
:107E10002C10A363236478D017F062FC082017F0BD
:107E200085FC201D17F0A2FC2389A17A40F25B603B
:107E300043EA014117F050FD304615F007FF214697
:107E4000594817F00BFCA08917F082FE94F86620C1
:107E500094F86700C2F3C003002102F0070200F0AB
:107E6000070017F09FFD204616F078FF27682E6860
:107E7000384615F0CBFE06446A6806F10901002079
:107E800017F072FE804617F003FF002017F01AFF6C
:107E9000E36B94F8670003F12F02636C00F00700B6
:107EA000012103EB420517F0B3FC4544054494F867
:107EB000670000F00700022825D004280CBF4FF40B
:107EC000BC73282301211D4417F0A4FC284417F09B
:107ED000D1FEA18A03313246C9B2384615F0A4FE5C
:107EE0000546002834D1204615F038FED0B90020D0
:107EF00002B0BDE8F0810A4603F03F03218D14F083
:107F00000DFA064661E71823DCE7D4E91A0109F007
:107F100097FD002880D194F87E3043F0040384F864
:107F20007E3079E7214A224922484FF4B0732AF083
:107F3000FFFE85F31188BFF36F8F0323184602DF1E
:107F4000D5E71D48214617F089FB17F06FFCCEE7F7
:107F5000164A1A4917484FF4AB732AF0E9FE184B3A
:107F60000721A5FB030301FB05310DA3D3E9002382
:107F7000FEF716F91349024613482AF0D9FE0025E8
:107F800085F31188BFF36F8F0323184602DF0F4874
:107F9000214617F063FB17F049FC6FF08B00A7E751
:107FA00000CA9A3B00000000D5EF0300D8D00600BD
:107FB000D8C1060004C00600B9DD0300DCC006001D
:107FC0008D49FD1A2CD1060020D0060095DD030056
:107FD00001482FF0F8B900BF20B00600012B07B50B
:107FE0000FD112780848012A14BF002257228DF8B9
:107FF000072000210DF107022FF058F903B05DF8BA
:1080000004FB6FF08500F9E720B00600012B13B5E3
:10801000144611D10A480DF1070200212FF06BF927
:10802000002807DB9DF80730A3F157025342534164
:108030002370002002B010BD6FF08500FAE700BF8A
:1080400020B00600014828F0EBB800BFB0020020C5
:10805000014828F0E5B800BFA002002007B542F0B3
:10806000B6F94FF47A72A0FB020302FB0131C00B98
:10807000074A40EA4140106000234FF4004205489F
:10808000CDE9002328F086FF002003B05DF804FB53
:10809000203F0020100A0020014B187800F05CBB44
:1080A000CAB30020044B1A78824202D01870FFF73E
:1080B000F3BF0020704700BFCAB3002008B542F0EC
:1080C00086F94FF47A72A0FB020302FB0131114AD8
:1080D000C30B126843EA41439B1A0F4A934214DDD3
:1080E00000F0AEFF20B1BDE808400120FFF7DABF85
:1080F0000220FFF7D7FF00F02BFA002803DABDE8D3
:10810000084000F05DBA2AF020FE47F23052934258
:10811000E9DC08BD203F0020A0BB0D0008B542F0FF
:1081200056F94FF47A72A0FB020302FB0131C00B37
:10813000044A40EA41401060BDE808400020FFF7D3
:10814000B1BF00BF203F0020014B1878704700BF2F
:10815000CAB30020F8B5044610B900252846F8BD7A
:108160000378002BF9D00F4E0F4FBE420FD30D4EA8
:10817000BE42F2D2306841F0DCFC30B135682146B5
:108180002868FEF727F80028E8D00436F0E73068C2
:1081900041F0CFFC18B135682B68A342DED004361D
:1081A000E3E700BF884C0700944C070070B5194CFA
:1081B000194D8CB00022002303A9204627F0C0FCF3
:1081C00008B10CB070BD2B68059E5868DDE903123C
:1081D0002AF009F90028EDDBFF238DF81830B6FAF4
:1081E00086F35B0907908DF8203042F0F0F84FF4E9
:1081F0007A72A0FB020302FB0131C00B40EA41404E
:10820000C90B8DE8030006ABCDE90A010FCB00F0E6
:10821000BDFACFE7A80B0020244000201FB50A4C70
:108220002468A46884420DD183F00103CDE90112D2
:10823000039306480022002301A927F023FC0448E9
:1082400027F0EEFF04B010BD24400020A80B002052
:10825000144000201FB50023CDE90233044B8DF8F4
:108260000C0001A801932AF0EEF805B05DF804FBBC
:10827000D0B80600044B1A68044B9A4214BF6FF042
:1082800012000020704700BF24400020B8B806004C
:1082900038B5044600282FD0194D2B68834229D0C9
:1082A00053B1986840B183685B6803B198472B6805
:1082B0000021986801F088FC1249134B8C4214BFCE
:1082C000ED2100213C2200202AF0A7F8002812DB33
:1082D000A0682C6070B1012101F076FC2B689868D1
:1082E00083680A491B6898472B68986883689B686D
:1082F00003B19847002038BD6FF01200FBE700BFC4
:1083000024400020B8B80600243F00201D8202004F
:1083100038B5054648B90648FFF7BAFF041E02DB28
:108320002846FFF797FF204638BD6FF01504FAE79F
:10833000B8B80600F7B50C4615460D4901AA1E4609
:108340002BF099FB68B1019B6BB9012C0DD1094F42
:10835000224639463046A847002802DD3878FFF724
:10836000D7FF03B0F0BD0020FBE76FF01500F8E782
:108370003DEE0600BC0900200148FFF789BF00BFA1
:10838000B8B8060008B50B480B4941F048FE0B4849
:108390002BF0BAFA18B1094801212BF089FA084AE2
:1083A000002342F8043B01333C2BFAD1BDE80840DE
:1083B000FFF7E2BF14400020AD81020038B0060094
:1083C000243F002030B51D4C04EB00148FB06068D2
:1083D00083684021DB68984768BB04AD04906860FF
:1083E0006189606883682A461B69984718BB95E8CD
:1083F00003000123069307AB83E803006389ADF80C
:10840000243041F0E4FF4FF47A75A0FB053205FB00
:108410000121DB0B43EA4143C90BCDE90A31237B40
:108420008DF830300EAB13E90F008DE80F0006AB6E
:108430000FCB00F0D1F90FB030BD00BFD00200204B
:1084400010B5134CBFF35B8F54E8002F22F00101ED
:1084500044E800100028F7D1BFF35B8FD20702D5A4
:108460000020FFF7AFFFBFF35B8F54E8003F23F01E
:10847000020244E800210029F7D1BFF35B8F9B077C
:1084800004D5BDE810400120FFF79CBF10BD00BF20
:1084900028400020064901EB0012506830B1836883
:1084A0009B68114608310BB1024A1847704700BF5C
:1084B000D0020020B984020010B5104C0C1B102C07
:1084C0001BD8241141F054FE90B1BFF35B8F012300
:1084D0000B4AA34052E8000F184342E8000100296C
:1084E000F8D1BFF35B8F0748BDE8104027F098BE76
:1084F0002046BDE81040FFF765BF10BDD802002040
:1085000028400020C0020020F8B50F4D0F4E761B0A
:1085100007460C4605EBC105C6F3C706A64201DCBB
:1085200000200CE02A683B689A4209D13C716B68D4
:1085300038461B68984718B1431E012BF0D9F8BD87
:1085400001340835EAE700BFE83D0700303E070088
:1085500037B501A827F0DCF8174D019C00232B60EC
:108560001823584318380444019B9C4202D200202F
:1085700003B030BD204641F0DCFAD0B120462BF0EC
:108580008DF9B0B920462BF0B5F9014688B92046DF
:1085900001F01AFB20F0200378330AD010F1860F87
:1085A00007D00028E4DB2B68044A42F8234001335B
:1085B0002B60183CD8E700BF2C4000200B0A00209D
:1085C00070B5084D084E2C68013C002C02DA0023DF
:1085D0002B6070BD56F82400012101F0F5FA013C32
:1085E000F3E700BF2C4000200B0A002000B58BB041
:1085F000064B074A2821684623F094F905490122D1
:10860000684602F02FFA0BB05DF804FB83EE06001B
:108610008DEE0600CBB300202DE9F84347680446F1
:1086200000254FF001087B68AB420DD82149224854
:1086300041F042FDA3681B680BB120469847398979
:1086400039BB0020BDE8F8833A6802EBC50352F855
:1086500035001979DB88D0F810C0D0F80890DCF824
:108660000060DA0754BF43F4B01383F4D01323F44B
:10867000801208FA01FEDB074CBF46EA0E0626EA26
:108680000E06CCF80060D9F80030984770B9013573
:10869000C9E740F2E7304FF47A72002300EBC130B3
:1086A0000021FDF77DFD41F019FECAE76FF00400DF
:1086B000C8E700BFED850200580E002008B5074B43
:1086C0005A784AB901221A7005480022002327F07F
:1086D00015FE044829F0CDFE002008BDCBB30020D4
:1086E000580E0020D8AF060008B54FF4F012002352
:1086F000024827F037FE00EAE07008BD580E00205F
:10870000F7B50C461646114901AA1F462BF0B3F9DE
:10871000B0B1019BA3B9012C15D10D4D22462946BC
:108720003846B047002806DB2B780A486C7023B126
:1087300029F09FFE002003B0F0BD29F0B6FEF9E756
:108740006FF00100F7E76FF01500F4E783EE060025
:10875000CBB30020D8AF06001FB50023CDE902330C
:10876000044B8DF80C0001A8019329F06CFE05B0B4
:108770005DF804FBF4B806000268034B9A420CBF94
:1087800008300020704700BFF4B8060084B030B550
:1087900089B00CAC84E80F00002301930CAD084BAA
:1087A00000930FCD02AC0FC495E8030084E80300EA
:1087B000684629F048FE09B0BDE8304004B0704773
:1087C000F8B806000268034B9A420CBF083000203C
:1087D000704700BFF8B8060084B030B58BB00EAC5F
:1087E00084E80F00002301930EAD084B00930FCDDA
:1087F00002AC0FC495E80F0084E80F00684629F02A
:1088000022FE0BB0BDE8304004B07047FCB8060053
:108810000268034B9A420CBF08300020704700BF2B
:10882000FCB806001FB50023CDE90233044B8DF8D8
:108830000C0001A8019329F006FE05B05DF804FBC9
:1088400000B9060082B038B504A981E80C000546DD
:10885000114826F069FF0446A0B16B68012B0CD0CB
:10886000022B05D0A3B9BDE8384002B029F064BEA0
:1088700029F069FE00282046F5DCBDE8384002B04A
:1088800029F053BE6FF00400BDE8384002B07047D5
:108890006FF08500F8E700BF83EE060082B010B5E8
:1088A00002A981E80C0004460B4826F03DFF78B190
:1088B0006368022B04D00020BDE8104002B070476E
:1088C00029F041FE0028CCBF002001206060F2E7C3
:1088D0006FF00400F0E700BF83EE06001FB5002331
:1088E000CDE90233044B8DF80C0001A8019329F067
:1088F000AAFD05B05DF804FB38B906000268034B19
:108900009A420CBF08300020704700BF38B90600FB
:1089100008B500F0DDFBBDE80840014941F09BBB14
:108920000003002007B5084841F003F948B14FF4AF
:10893000F0120023CDE9002304480022002328F090
:1089400029FB03B05DF804FB68B00600480A00206C
:1089500008B5FFF711FF10B96FF0850008BDFFF7EC
:10896000F3FB38B10138C0B20128F5D8034841F013
:1089700075FD01E0FFF7D6FF0020EFE7480A002071
:1089800037B5104CA5683021EB6820469847B8B938
:1089900030212B696A462046984788B90A4C0098CE
:1089A0002378834204D0C0B22070FFF797FF38B914
:1089B00002F02AF82378984202D0184602F02AF8EA
:1089C00003B030BD68B00600CDB3002008B505483F
:1089D00041F0AFF818B1FFF7A5FF002008BD6FF018
:1089E0001200FBE768B00600014B1878704700BF23
:1089F000CDB300201FB50023CDE90233044B8DF821
:108A00000C0001A8019329F01EFD05B05DF804FBE0
:108A100044B9060008B5BDF808101944012908DC5E
:108A20003BB1054B127805481A7027F0F9FB01207D
:108A300008BD6FF00600FBE7CEB3002080030020E6
:108A4000014B1878FFF764BCCEB300201FB50C248F
:108A50000294044C0194BDF8184000942DF0BAFC27
:108A600004B010BDF3B300201FB510240294044CD1
:108A70000194BDF8184000942DF0ACFC04B010BD7A
:108A8000E3B3002007B5064B0093064906480523CB
:108A90004FF43E7227F0CAFB002003B05DF804FBE0
:108AA00048B9060018C70020880E002070B50F4D89
:108AB0000F4E8AB0002200236946284627F040F86E
:108AC000044608B10AB070BD2146182204A841F03E
:108AD00072FD10230DEB030120460596CDF818D04A
:108AE000ADF81C3007F0C6FCE4E700BFD80B00204F
:108AF00064B90600F0B50E4E0E4D0F4F87B00C490D
:108B000000220023284627F01BF8044608B107B0CE
:108B1000F0BD21461822684641F04DFD0C23694600
:108B20002046CDE90176ADF80C3007F0A3FCE6E76E
:108B3000F3B30020080C0020F0B906001FB50E4961
:108B40000E4840F6CD42002326F09CFF044670B14B
:108B500010F10B0F08D1002200236946074826F0C8
:108B6000EFFFFFF7EBFF0446204604B010BD0449B9
:108B7000044841F070FAF7E7E3B30020D80B002077
:108B800020030020880E002030B589B001AD85E8B3
:108B900007000F4840F6CD420023294626F072FF19
:108BA000044680B110F10B0F0AD10022002305A961
:108BB000074826F0C5FF95E80700FFF7E5FF0446E4
:108BC000204609B030BD0349034841F044FAF7E7B5
:108BD000080C002010030020880E002030B5037818
:108BE000012B85B018D0032B0FD063BB4378174DF2
:108BF00003F00701DC0801238B4081782A5DDBB29A
:108C000031B113432B55FFF799FF002005B030BD5C
:108C100022EA03022A55F6E78DF80530D0F8013034
:108C2000CDF80630D0F80530CDF80A30C27AB0F869
:108C30000930ADF80E308DF8042004AB13E90700BD
:108C4000FFF7A2FFE1E76FF08500DFE7E3B3002065
:108C5000014B1970704700BF02B40020014B18602F
:108C60000020704730400020084A094B12781B78DA
:108C7000002062F30700074A12785B0062F30F20BE
:108C8000DBB282B063F3174002B07047FFB300203D
:108C900003B4002000B4002013B50C4B1C6894B141
:108CA000FFF7E2FF8DF80400C0F30723C0F307408D
:108CB0008DF805308DF8060001990548234602B06D
:108CC000BDE81040184702B010BD00BF3040002082
:108CD000944C070010B5002003F038FD044610B98D
:108CE00002482AF0C5FE204610BD00BF90030020B8
:108CF00010B5084805F078FB074805F08BFC074BDA
:108D0000074800241C70074B01221A7027F088FACC
:108D1000204610BDCC030020BC03002001B400207D
:108D2000AC030020FFB30020044B1B782BB1044B95
:108D3000044800221A7027F073BA704700B400206C
:108D400001B40020F00300200C4B07B5187030B1BF
:108D50000B4827F065FA002003B05DF804FB019092
:108D60000849012001AA05F0FDF8019810B113216E
:108D70002CF0F9F804F09EFBEDE700BF00B40020F2
:108D8000F0030020592605000B4BB1FA81F010B515
:108D900040090C461870FFF72DFE3C2C0AD1074BFA
:108DA0001B783BB1064B074801221A70BDE8104002
:108DB00027F036BA10BD00BF03B4002000B4002075
:108DC00001B40020F003002070B503788AB0044697
:108DD0000E4607AD032B20D8DFE803F002191B1D58
:108DE00011492846FDF700FA059563780493A378A6
:108DF0000393E37802932379019363790093A37932
:108E00000A4A1E21304622F08DFD0AB070BD084985
:108E1000E7E70849E5E70849E3E7084A0A21284661
:108E200022F080FDE0E700BF6AF0060093F0060044
:108E300071F0060078F0060082F006008CF0060063
:108E400000B589B02CF03AF96946FFF7BDFF044B35
:108E500000201870FFF7CEFD09B05DF804FB00BFDD
:108E600003B4002070B5204E204B3068B2881C78C7
:108E70001F49B3798AB003AD0390ADF810200020EC
:108E80002A46AB7108F0D4FB31460722284641F050
:108E900018FD184B0646D0B1ACB903202246214636
:108EA00001241C700023CDE90602CDE90815ADF8B8
:108EB00014308DF8163000931A46194605A804F0B0
:108EC000C7FA0AB070BD1320A022F021E8E70A4DCE
:108ED00018700FCD05AC0FC42B68236007490096AE
:108EE00033460322EAE700BF4AFB060001B4002034
:108EF000018F020002B4002040B4060050BA060000
:108F000038B507220C460649054641F0DAFC28B17F
:108F10002B682360AB88A380AB79A37138BD00BFF9
:108F20004AFB0600014B1878704700BF03B40020CD
:108F300000487047944C070073B5194C194EB44261
:108F4000254602D36FF0120008E02B689B680434BA
:108F500033B9154C2368AB4211D1002002B070BD6B
:108F60009847C0F307238DF804008DF80530C0F34F
:108F70000743C0B28DF806300028E0D0E9E723B1FE
:108F80001B685B680BB1002098472B6825605B6805
:108F9000002BE2D0012002B0BDE87040184700BFAE
:108FA000944C0700984C07003440002007B5094B4B
:108FB00001911B68834207D19DF8063033B903B095
:108FC0005DF804EBFFF7B8BFFFF7B6FF002003B072
:108FD0005DF804FB3440002070B5094C094D0A4E81
:108FE000AC42234603D3BDE87040FFF7A5BF1B6822
:108FF000DB680434002BF3D030469847F0E700BF1D
:10900000944C0700984C0700AD8F0200054B1B687D
:1090100023B11B6813B11B6803B118476FF012002E
:10902000704700BF3440002008B5044801F006FA3C
:10903000002818BF6FF0150008BD00BF699002003E
:10904000084B1B780B2B4FF001000AD8984010F406
:10905000CD6F05D110F4016F0CBF012000207047C7
:1090600002207047D10900200A2808B5024613D013
:109070000A4B0B491870FFF7E3FF02280AD10B785F
:10908000032A08BF43F001030B70BDE80840054800
:1090900027F0C6B80023F7E708BD00BFD1090020BC
:1090A00004B400200004002007B5064B00930649D5
:1090B00006480A234FF4407227F0B8F8002003B0A6
:1090C0005DF804FB6CBA060010CA0020700F002087
:1090D00000487047700F00200149024840F0BBBFB4
:1090E000200400205810002000487047581000202D
:1090F00007B5084883685B6803B198474FF4A472CA
:1091000000230548CDE9002327F044FF03B05DF8B4
:1091100004FB00BFF0AF0600800A002010B5044633
:10912000084840F006FD60B1074B01221A7000F0BC
:10913000A1F930B132F0E8FA2046BDE81040FFF75F
:10914000D7BF10BDF0AF060005B40020014B187862
:10915000704700BF05B4002030B50A4D0A4985B0FC
:1091600002AB002400934FF4805205232846CDE93A
:10917000024427F05BF80549284640F06CFF204682
:1091800005B030BD5810002010CD00201004002084
:1091900010B5094C0A44914200D110BD11F8013BB1
:1091A000584003090001E35CC0B2434018091B01A9
:1091B000205CDBB25840EEE7DDF00600014B1B6897
:1091C000184700BF3004002030B585B004460D4676
:1091D00010220021684641F0EEF902238DF802309A
:1091E0002A46044B01932146684628F05DF805B0F5
:1091F00030BD00BFBD91020080B505460E46174642
:10920000984627F0E9FB034641F068FDDFF8189027
:10921000044649F80030424630463946A84754F8DB
:10922000090001F0F7FF00BF0800000008B5044680
:10923000EFF31183202383F31288BFF36F8F1AF0AB
:10924000A3FC204601F0D4FF024829F064FD2AF077
:1092500068FDFCE7EDF006002DE9F047058B0446BC
:109260002807904611D4022905F0070540F0CC806C
:10927000204629F008FE78B10138218B042811D846
:10928000DFE800F0C2106D85950001290CBF45F0A4
:10929000100545F02005258388F31188BFF36F8FF3
:1092A000BDE8F08701F0070AAA4500F0A580002775
:1092B000B9463E46A368002B00F0BC8041F008018F
:1092C000218388F31188BFF36F8FA168002900F014
:1092D000BA800D68002900F0B680D1F804803346CA
:1092E00052462046C047002D76D02B6829461D46A1
:1092F000F0E701F007035A1F012A1BD8002221F0D2
:109300000701062B276889B2C4E9002209D13B4630
:1093100003E0628B013262831B68002BF9D141F0BC
:1093200002012183204629F0AEFD00287AD041F0C9
:10933000200176E0042B0AD121F0070189B22183B4
:10934000204629F0A0FD10B141F020012183218B9E
:1093500001F0070AAA454FD00027B946AAE72369BA
:1093600021F0070141F00601062DD3F8009021837A
:109370002DD1B9F1000F3FD041F00801218388F3CE
:109380001188BFF36F8F3A492046C84729E021F082
:109390000701236941F0040189B2042DD3F8049038
:1093A0002183E6D000273E464FF0040A82E721F0F1
:1093B0000701236941F0050189B2052DD3F8089012
:1093C0002183D6D000273E464FF0050A72E70027DA
:1093D0003E464FF0060A6DE72B4687E7B9F1000FCE
:1093E000D1D1EFF31188202383F31288BFF36F8F5D
:1093F000238B23F008032383258BEA062ED525F043
:109400001003238305F007056669218B002EBFF644
:1094100070AF00232768C4E9003321F0070141F051
:1094200001012183218B01F0070AAA454FF00009B1
:109430007FF440AF002F9CD041F00801218388F3D6
:109440001188BFF36F8F002FC8D03D68394633466F
:109450005246204629F043FD2F46F4E7AB067FF540
:109460001BAF25F02003238305F0070500E700BFAD
:109470000B2F050038B500201AF0D2FB074D01462E
:109480000446284600F08AF9284629F0A5FE002364
:109490001A46012130F02DF9204638BD3840002011
:1094A00030B585B03EF0E7FB0C4C056941F2142263
:1094B0002946204641F057F8062144201DF0E8F8DF
:1094C00003230622CDE902324423CDE900001A46E7
:1094D0002946204620F024F905B030BD06B400200E
:1094E0002DE9F047D8B0884604463CF01EFF20AE78
:1094F0005FFA80F9C0F30727C0F3074530461EF036
:10950000A5F88DF8A1908DF8A2708DF8A3503CF0CD
:109510001AFF3CAFC0F307455FFA80FAC0F3072992
:1095200038461EF093F80C23009302221D230021DD
:10953000204601978DF813518DF811A18DF81291E5
:1095400029F0E8FD0A23009303221B230121204672
:10955000019629F0DFFD98F80030019708220233C8
:1095600000929B08042202212046062529F0D2FD04
:10957000032305221E2120460197009529F0CAFDEC
:1095800004230093019601232A461F21204629F037
:10959000C1FD98F801305BB105AD28461DF000FC17
:1095A000054B00954FF0FF320921204629F0F0FDD0
:1095B00058B0BDE8F08700BF74BA0600F0B50D469C
:1095C000B9B0002131F02BFD04463CF0BCFEC0F3E5
:1095D00007238DF81130C0F307438DF810008DF884
:1095E000123005AF1B4A04990323384629F072FD57
:1095F0003CF09BFEC0F307238DF80D30C0F307430A
:109600008DF80C008DF80E301CAE0399304629F011
:1096100072FD0022019644263346114620460096EC
:1096200029F078FD29462046FFF75AFFA9780A4A13
:109630000A4B002918BF13460022CDE900731146DA
:109640003346204629F083FD2046FFF729FF39B035
:10965000F0BD00BFCCD40600FCFA060000FB0600FB
:1096600070B54FF0FF324FF0FF330C4826F0CAFAC6
:109670000B4B0A481D7829F0ADFD0A4B1C6843F2DC
:10968000386604B970BD04F54053A11983F83A5601
:109690006068FFF793FF2468F3E700BF640B0020C6
:1096A0001AC600208076002038B50C4D4FF0FF33ED
:1096B0004FF0FF32284626F0A5FAFFF795F9044649
:1096C000FFF7BEFC064B003818BF012058701C7015
:1096D0002846BDE8384029F07DBD00BF500B002072
:1096E0001BC6002008B5FFF731FD30B1FFF7DCFFE6
:1096F000FFF7FAFC024940F0AEFC002008BD00BFB5
:109700004404002010B5084C4FF0FF334FF0FF32F7
:10971000204626F077FAFFF705FC044B1870204628
:10972000BDE8104029F056BD640B00201AC6002089
:1097300008B5FFF70BFD30B1FFF7E4FFFFF7D4FCEE
:10974000024940F088FC002008BD00BF340400201E
:10975000F8B54FF0FF324FF0FF330D4826F052FAC4
:109760000C4B0B481D785E7829F034FD0A4B1C68C1
:1097700043F2386704B9F8BD04F54053E11983F8A2
:10978000396683F838566068FFF718FF2468F1E7F8
:10979000500B00201BC600208076002030B5044608
:1097A00085B008461AF03CFA44226060A0212FF0F0
:1097B0007EFF606822F01AF900231A46032105464D
:1097C0002FF097FF0623009344231A4604F1080163
:1097D00028463EF024FA606822F054F90546042138
:1097E00003A802F051F9039B124913F0010F124B29
:1097F000284618BF19463EF043FC00231A460121B3
:1098000028462FF076FF002323600C4B5A6872B96C
:10981000C3E90044FFF748FF0020FFF799FFFFF777
:1098200071FF0020FFF71CFF002005B030BD146061
:109830005C60EFE78CBA0600A4BA060080760020D0
:109840002DE9F7430F4606460821C06ADFF850901D
:1098500029F02CFD3C68241A80463C6004EA090586
:10986000AC4203D8002003B0BDE8F08308236A4669
:109870002146304629F0B2FC0028F4D16946304632
:1098800029F01EFD40B1BDF80230BDF804203C6057
:1098900005EA090513441D44A4EB0804E0E700BFF2
:1098A0000000FFFF73B504460821C06A124E29F07C
:1098B000FDFC4FF6FF726368ADF800208DF80620BE
:1098C000A289191833401344181A002560606846AD
:1098D000ADF80210ADF8045029F0DFFC69462046CF
:1098E00029F0AEFD2046211D29F0B1FC6368284611
:1098F0003340A36002B070BD0000FFFF2DE9F047C8
:10990000044688B000F11407384640F01CFAA06AFB
:109910008368DB689847E06228B96FF01505284630
:1099200008B0BDE8F087A06A8368DB6898470368E1
:10993000013B1F2BF1D8A06A216805AA2DF0DAFEA1
:109940000028EAD1A589002DE7D0069BB5FBF3F2EC
:1099500003FB1255002DE0D1E389012BDDD9E36A29
:10996000009593F805904FF0FF334FF0FF323846E3
:1099700026F048F9E06A082129F098FCA846064636
:10998000E3891FFA85FA534508D8E389434523D173
:10999000384626F0AFF96FF02C05C0E7A1892B04FB
:1099A000891B13FA81F14A4608232046009129F0C9
:1099B00023FC78B16946204629F049FC08F10108EA
:1099C000009908234A4620461FFA88F829F014FC1B
:1099D0000028DAD00135D3E753450BD1009908238D
:1099E0004A46891B204629F007FC18B969462046DB
:1099F00029F02DFC69462046FFF722FF054618B1E5
:109A0000384626F077F98AE7009B63604FEA1348EF
:109A10004FEA0848C4F80880D4E9011399420FD3EB
:109A2000082301AA204629F0D9FB05460028E7D1E2
:109A300001AB13F8012B914533D10135082DF8D135
:109A400063681B0C1B0469462046009329F0FFFB4A
:109A5000A38900994A46204629F0CEFB051ECFDB9C
:109A6000636876D006EB03084FF6FF79A389CDF83B
:109A700000801FFA88F29B1B9A422ED30023616854
:109A8000002B43D0090C090400912046694629F0B7
:109A9000DEFB0099204629F0E7FB0546002D74D037
:109AA000AEE701A9204629F00BFC626810B9921BB1
:109AB0006260B1E7BDF80850BDF80610E06AC4F86E
:109AC0000880294429F0F2FB40449042A060EED186
:109AD000002DECD06FF01C0568E0082303AA414676
:109AE000204629F07BFB0546002889D103A92046A2
:109AF00029F0E6FB30B1BDF80C304B4502D1BDF882
:109B000010300BB1B044B1E70123B8E7204629F08B
:109B1000ABFB054600287FF473AF6368264AA18932
:109B200013400B44A3EB460363601340A36020463D
:109B300029F0AEFCB1E75B1A4A46204629F05CFBEF
:109B4000051EFFF65DAF08D0E26AA36812681344F1
:109B5000A360D4E901318B42EDD86168A38901EBA0
:109B600046029A429AD1DFF85080A26801EA0803BF
:109B70009A4293D0204629F077FB054600287FF4CF
:109B80003FAF636803EA0803A360A389A288A3EB3D
:109B900046039A4206D0384626F0ACF801232374D7
:109BA0000025BCE6204629F05CFC0546384626F038
:109BB000A1F8002DF2D0B2E60000FFFF014B0360D8
:109BC00000207047C4BA060070B544690D46002CE9
:109BD0003FD0244A2379565CB3423DD0224A525C9E
:109BE0009A423CD1A3689847002814DA022D10D07D
:109BF000032D0FD110F1860F0BD0BFF35B8F54E80C
:109C0000003F43F0020344E80032002AF7D1BFF3DB
:109C10005B8F267170BD022D267101D00020F9E7FF
:109C2000BFF35B8F54E8003F23F0040344E80032A5
:109C3000002AF7D1BFF35B8FBFF35B8F54E8003F7F
:109C400023F0020344E80032002AF7D1BFF35B8F10
:109C5000E4E76FF05700DDE76FF07700DAE76FF0C9
:109C60008500D7E708FB060004FB060070B5104B23
:109C70001C680D46B4B10F4B196800238B4202DB00
:109C80006FF0010070BD224612F8106B864202D0C0
:109C900001331446F2E7E0683FF04BFF28B12C6037
:109CA0000020EFE76FF00C00ECE76FF01200E9E73F
:109CB00054040020C4BA060010B588B0436802936B
:109CC0008368C068CDE903320A680023CDE9062322
:109CD0000C4601AA044905932DF010FD079808B918
:109CE000059B236008B010BD67390500F0B40C4B2C
:109CF0000C4E5F6A0C4BB34203D36FF08500F0BC8F
:109D000070475D68BD4209D31C693CB195F802C03B
:109D10000579AC4502D12346F0BC18472433EAE765
:109D200088760020570E0020570E00202DE9F047BE
:109D3000134CDFF85080DFF8509005460E4617466A
:109D4000444503D36FF08500BDE8F0876268D9F819
:109D500024309A4212D3A36983B19078297988423A
:109D600005D13A4631462846BDE8F04718475279B2
:109D7000012A03D13A463146284698472434DFE782
:109D8000570E0020570E0020887600202DE9F04164
:109D90000B4CDFF8308005460E461746444502D38B
:109DA0006FF0850009E063690BB92434F6E73A46A1
:109DB0003146284698470028F7D1BDE8F08100BF1A
:109DC000570E0020570E002010B504462DF053FB0F
:109DD00010F1780F00D050B9054A204629F0FEFD59
:109DE000D2F8C43023EA0003C2F8C430002010BD0A
:109DF00088760020024B00221A605A60704700BF2C
:109E00004377002070B50B4B0B4CA34201D30020CD
:109E100070BD196A1E7F00220439D5B2AE4201D846
:109E20002433F2E7013211F832508542F5D1012096
:109E3000EEE700BF570E0020570E002008B5094876
:109E40000378C3F341130A3350F823303BB100F1D8
:109E5000080200F110019847C043C00F08BD184622
:109E6000FCE700BF8876002004282DE9F14FDFF8D9
:109E7000A09004460F4616D001282DD1DFF88C8023
:109E800098F8B93043B300F061FD1F4D4D4520D225
:109E9000D5F820B04FF0000A2B7F5FFA8AF6B34264
:109EA00004D82435F2E7FFF7A5FFE7E70BEBC6067A
:109EB0000AF1010A30792DF0DEFA0246307929F0F4
:109EC0008DFDD8F8C430002A23EA0003C8F8C43056
:109ED000E2DA002388F8B9300B4D4D4508D30B4B1F
:109EE0001B6A6BB13946204601B0BDE8F04F1847F8
:109EF000EB681BB13A462146284698472435ECE7E3
:109F000001B0BDE8F08F00BF570E0020887600201A
:109F1000570E002073B5C4B263060D468DF8074096
:109F200007D02046FFF76EFF78B10D4B93F8BA00CB
:109F300058B10B4E204655B116F012FEF3691BB115
:109F40000DF1070108209847012002B070BD16F0FE
:109F50002FFEF369002BF7D00DF107010920F2E77E
:109F60008876002073B586788DF800600379427991
:109F70001C4C43EA0223ADF80230C378304603F0AC
:109F800003038DF8043029F029FDD4F8C4301842B9
:109F900005460BD0304600F0BBFC3046FFF714FFFF
:109FA00040F0E6F810B9962026F0D4FC684616F08A
:109FB000B3FD10F1780F03D010B1002002B070BDD6
:109FC0009DF8000016F030FE10F1780F01D0002847
:109FD000F3D1D4F8C43001202B4384F8B900C4F87D
:109FE000C430EBE7887600202DE9F047A34EB36933
:109FF00004460F461546FBB9237803F01F03012BD7
:10A0000000F09D80022B00F0048133BB94F9000026
:10A010002A686178002834DA062912D008292BD062
:10A02000D9B901231370517096F8C3305B0043F027
:10A030000103137002232AE198470028DCD1002095
:10A040000DE06288100A011F0129844605D90728FE
:10A0500003D8716AD2B20C781CB96FF01500BDE854
:10A06000F0874E78664503D19A4200F00B810133A8
:10A070002144F0E70B780AE196F8BA301370012317
:10A0800005E101390829E8D801A353F821F000BF00
:10A0900029A102005BA0020037A102005BA0020020
:10A0A000B5A002005BA002005BA002005BA0020062
:10A0B000C1A00200A07816F01DFD0028BFD0CCE79B
:10A0C0006388756A63BBFFF795FE638886F8BA30CC
:10A0D000F369002BB3D06A4903209847AFE76B7848
:10A0E000042B10D0052B11D0022B04D16F7963887B
:10A0F000BB4208BF01202B781D442B78002BEED1EA
:10A100000028AAD0DFE795F80380F4E76388BB4214
:10A11000F1D1B8F1000FEED12846FFF723FFEAE7AF
:10A12000FF270020B846E8E76388012B95D100237C
:10A1300086F8C33083E76388012B8ED1F8E796F861
:10A14000BA30D5F800C0002B87D0756AA38894F880
:10A1500004E02A46107800283FF47FAF51780229A6
:10A1600004D192F80480F04500F293800244F1E7B4
:10A170008CF800208CF80120396060E7154494E0E9
:10A180000B2A7FF46AAF00274FF0FF08C146BA469A
:10A1900006E06B78042B0FD0052B21D02B781D44C3
:10A1A0002B78002BF5D1F36913B15146072098475E
:10A1B000002F7FF444AF50E795F80280A38895F80C
:10A1C00003909845EAD163889945E7D1B8F1070F24
:10A1D0001CD806EB0803AA4683F8BB900127DDE7ED
:10A1E000A3884345DAD1A3784B450AD0AF783846E7
:10A1F00000F08EFB3846FFF7E7FDB0FA80F77F09E5
:10A20000CCE72846FFF7AEFE0746C7E7AA46002779
:10A21000C4E794F900206378002A18DA002B7FF451
:10A220001CAF24792D6863060AD02046FFF7EAFDAB
:10A2300000283FF412AF96F8BA30002B3FF40DAF70
:10A240002946204616F0D4FC00236B70F2E6012B61
:10A2500008D0032B7FF401AF6388002B7FF4FDAEA1
:10A26000012103E0618800297FF4F7AEA088FFF7A1
:10A2700051FE00287FF4E3AEEFE600BF88760020B1
:10A2800042770020022829607FF4F4AE4B883B60BF
:10A29000D5E694F9000062780028BFF671AF002A75
:10A2A0003FF466AF0A2A7FF4D8AE2A78002A3FF43A
:10A2B000D4AE697804297FF461AFA9788B427FF42A
:10A2C0005DAF072B96BF9B19002393F8BB308CF82A
:10A2D0000030D4E613B5164C237DF3B9E268A168CB
:10A2E000019201AB802029F087FB019AA3681344F7
:10A2F000A360E3689B1AE3606BB962B12369E288EB
:10A300009A4208DD94F8C82093FBF2F102FB113366
:10A310000BB90123237502B010BD00231A4619465C
:10A320008020237502B0BDE8104016F0A7BC00BF26
:10A330008876002030B585B0002302460D46019393
:10A34000002858D1002935D108220B460DEB020117
:10A350002DF0AAF8002804DA802016F001FC05B0E0
:10A3600030BD2A4C029A2260039A626004F13802DE
:10A37000A2609DF90820BDF80E302575002AC4E9B9
:10A3800003550ADB802B04D9802016F0E9FB00205E
:10A39000E3E713B1C4E90333E1E7FFF74FFD00281A
:10A3A000DAD0E28823699A42D4BFE260E360FFF723
:10A3B00091FFD4E7154CD4E90215002D01AB04DC64
:10A3C0002DF072F80028CADAC6E72A462DF06CF89C
:10A3D0000028D9DB019AA3681344A360E3689B1AA1
:10A3E000E360002BBBD104F13803A360FFF726FD27
:10A3F0000028DCD1B0E78028B1D1044BDA68002A0C
:10A40000D5D11B7D002BD2D1A9E700BF88760020D3
:10A41000054B064A9A62064ADA62064A1A63064AF7
:10A4200058629A610020704788760020E99F0200F8
:10A43000ED9C02008D9D02002D9D02002DE9F3414F
:10A440000446474D47484FF0FF334FF0FF3225F0A9
:10A45000D9FB95F8B830002B7BD16B6A83B14248A9
:10A460002C62E8616E6A16F023FD16F011FB041EE3
:10A4700010DA3C4825F03EFC204602B0BDE8F081F1
:10A4800000F0BEF8FFF7C4FF6B6A002BE7D14FF076
:10A49000FF34EEE700F07CFA041EEADB7378012B50
:10A4A0005AD1F379002B57D00026684685F8C8307A
:10A4B000ADF802308DF804608DF8006016F02CFBCA
:10A4C000041ED6DB802768468DF8007016F024FB4A
:10A4D000041ECEDB2549304616F0D6FC041EC8DB30
:10A4E0002249384616F0D0FC041EC2DB204CDFF8AF
:10A4F000848044451AD3002016F096FB041EB8DB76
:10A50000D5F8C430802043F00103C5F8C43016F0FC
:10A510008BFB041EADDBD5F8C43043F48033C5F8A3
:10A52000C430012385F8B8300024A2E7276A00264A
:10A53000227FF3B29A4201D82434DAE707EBC30250
:10A5400057F83310107916F09FFC01360028EFD031
:10A550009DE76FF077048CE76FF0150489E700BF83
:10A56000887600203C0B0020699E020035A3020083
:10A57000570E0020570E002030B51F4B8BB005AA98
:10A5800003F1100518685968144603C40833AB4238
:10A590002246F7D11B7823701022002101A840F039
:10A5A0000AF812220021154840F005F8102101A8F0
:10A5B0002DF053F900281BDD0828B8BF0820093802
:10A5C00001AB0E491A18002012F8013F0AAC04EB47
:10A5D000131403F00F0328336B44013014F8144CA8
:10A5E00013F8143C0C7008284B7001F10201EBD1F8
:10A5F00002480BB030BD00BF0CFB06001EC6002099
:10A600002DE9F04F724B93F800B087B0BBF1000F0B
:10A6100003D0704807B0BDE8F08F6E4C00264FF0B5
:10A62000011AB0463546B14623783BB96A4B02342D
:10A630009C42F3D1664A01231370EAE76378052B45
:10A640001BD8DFE803F08E03C38E1D39402304A816
:10A650008DF810B0ADF812308DF814B02CF0F6FE75
:10A6600040B1082304A8ADF812302CF0EFFE08B179
:10A67000ADF812B0BDF81230E37123781C44D3E773
:10A68000E378002BF9D1A3786BB108F101085FFAE8
:10A6900088F8F2E76B689C4207D024354F4B9D4207
:10A6A000F8D30020B6E74E4DF8E7AB68002BECD0AE
:10A6B000414620469847E8E7002DF2D000222B7F44
:10A6C0009A42EED2296AA07801EBC2010B79984236
:10A6D00001D00132F3E70127E07800F003008DF8A4
:10A6E0001400207994F805C040EA0C20ADF812005F
:10A6F00094F902000028FBB228DA07F110004FF0AD
:10A70000010C0CFA00F010EA0A0F26D143F0800089
:10A710008DF8100004A8CDE9021301922CF096FEEA
:10A72000DDE90121039BC0B99DF81020A27012F051
:10A73000800F18BF10330A7118BFDBB24FF001024F
:10A7400014BF9A40BA404AEA020A96E70120B8408C
:10A7500010EA0A0F01D11846DAE70137102FBBD1F2
:10A76000B7E7032E1AD1FFF707FF074650B1FBF7F3
:10A7700043FD024630B11028A8BF10223946A01C64
:10A780003FF0F1FE23786FF00201E218091B04EBA1
:10A790005303D14213D50136F6B26EE7002EF1D144
:10A7A000B9F1000F3FF47DAFA4EB090389F8023043
:10A7B000C3F3072389F8033089F80480EBE702F834
:10A7C00001BC13F8010902F8020DE2E7A14654E7C3
:10A7D0001DC60020E40D0020570E0020570E00205B
:10A7E000570E002010B5094B00211A461C788442F0
:10A7F00005D15C681CB1482303FB012010BD013169
:10A80000042903F14803F1D10020F7E75477002031
:10A810002DE9F34150F8303C10F8346C1033044605
:10A820000AD1036950F8282C980736D5D2B95907B0
:10A8300015D5002344F8303C54F8303C10330BD08D
:10A8400054E9097554F81C8C3FF092FC00284FD055
:10A850002E4821463FF0FFFB02B0BDE8F08143F0F7
:10A860000403236154F82C1C01AB304629F0C4F8D2
:10A8700010B16FF01503DDE7019A54F82C3C134436
:10A8800044F82C3C54F8283C9B1A44F8283C54F8D3
:10A89000243C134444F8243CCEE754F82C1C01AB70
:10A8A000304616F067FA0028E3D1019D54F82C3C9D
:10A8B0002B4444F82C3C54F8283C5B1B44F8283CBF
:10A8C00054F8243C2B4444F8243C002DB1D03046AD
:10A8D00016F0F4FAB5FBF0F303FB1055002DA8D1E8
:10A8E00054F8283C002BA4D0304616F08BFAA3E78E
:10A8F00044F8200CA4F1180025F07EFA002DABD00E
:10A90000424639463046A847A6E700BF503D0020E2
:10A9100010B5EFF31184202383F31288BFF36F8FF8
:10A92000FFF760FF50B14368103307D16FF08B031E
:10A93000436000F1340104483FF08DFB84F311883B
:10A94000BFF36F8F10BD00BF503D0020F8B50E4C17
:10A9500004252027EFF3118687F31288BFF36F8F4A
:10A960006368103307D16FF08B030848636004F10C
:10A9700034013FF070FB86F31188BFF36F8F013D08
:10A9800004F14804E6D1F8BD54770020503D002082
:10A9900070B50A4C0A4E0025314620463FF03FFB79
:10A9A0000122A4F11800114601353FF0B5FA042D3B
:10A9B00004F14804F0D1002070BD00BF887700206A
:10A9C00011A802001FB507240294044C0194BDF89D
:10A9D000184000942BF0FEFC04B010BDD2090020FA
:10A9E00010B5084C86B024788DF8174001240294E5
:10A9F0000DF117040194BDF8204000942BF0EAFCFF
:10AA000006B010BDD9090020014B1878704700BF6F
:10AA1000D909002000B589B064288DF8070019D83D
:10AA20000E4B18221870002102A83FF0C4FD0C4BF9
:10AA300003930DF10703049302A901230020ADF84D
:10AA4000143005F017FD10F1800F08BF002009B089
:10AA50005DF804FB6FF01500F9E700BFD90900208D
:10AA6000A8BB06002DE9F0410F4B1C6805460E46B9
:10AA70001746ACB14FF0FF324FF0FF330B4825F0D3
:10AA8000C1F863683246D3F8088029463B46204621
:10AA9000C0470446054825F02DF92046BDE8F08161
:10AAA0006FF00104F9E700BF74780020280B002044
:10AAB00000230360044B5A6812B9C3E900007047D1
:10AAC00010605860704700BF78780020014B186014
:10AAD000704700BF7478002030B585B0002305466C
:10AAE000CDE9023301904FF0FF330C484FF0FF32B5
:10AAF00025F088F80A4B1C684CB9284600F0D0F8BD
:10AB00000446064825F0F6F8204605B030BD6368D7
:10AB100020461B6801A998472468EDE7280B002010
:10AB2000787800201FB5CDE9010103924FF0FF3383
:10AB30000A484FF0FF3225F065F8094B1C682CB924
:10AB4000064825F0D7F8204604B010BD63682046BB
:10AB50001B6801A998472468F1E700BF280B002073
:10AB600078780020024B0022C3E90022704700BF22
:10AB700078780020024B0022C3E90022FFF7F2BFE1
:10AB800080780020F8B51C4C1C4E05460F46B44298
:10AB900012D31B4E1B484FF0FF324FF0FF3325F00E
:10ABA00031F834687CB1286854F8181C183CFBF75D
:10ABB00011FBD0B1A469F5E721682868FBF70AFB0F
:10ABC000B0B11834E3E700226F60AA61726805F142
:10ABD00018033AB9C6E9003300240A4825F08AF878
:10ABE0002046F8BD13607360F6E76FF01004F4E7D9
:10ABF0006FF01004F4E700BF70B3060030B4060035
:10AC000080780020280B00202DE9F74307460C46EA
:10AC100009B100230B601F4DDFF8809000264D45E1
:10AC20000FD31D4B1D6885B355F8188C01AA4146FA
:10AC30003846183D28F01FFF10B3D6B914BB2E4676
:10AC40001EE0D5F8008001AA4146384628F013FFDF
:10AC500050B116B954B92E4606E03168002240467C
:10AC600028F009FF0028F5D11835D8E7019B2360AB
:10AC7000F1E731680022404628F0FDFE0028DDD1D2
:10AC8000AD69D0E7019B2360D9E7304603B0BDE84A
:10AC9000F08300BF70B306008078002030B4060057
:10ACA0002DE9F047DFF8B090DFF8B0A080464FF014
:10ACB00000470026274C3D464C450DD3DAF80040AE
:10ACC000002C42D0183CB8F1000F25D122695ABBA4
:10ACD000A469F5E72F46EDE7B8F1000F03D122692B
:10ACE0004AB91834E8E720680022414628F0C3FE3C
:10ACF0000028F4D1F5E76368BB4205DDAF4209D017
:10AD00009D42A8BF1D46ECE7EBD19047002E08BF3F
:10AD10000646E6E71D46E4E720680022414628F0A3
:10AD2000AAFE0028D2D1D3E76368BB4205DDBD424D
:10AD300009D09D42A8BF1D46CAE7C9D19047002E41
:10AD400008BF0646C4E71D46C2E7AF42C2D130463F
:10AD5000BDE8F08770B3060030B4060080780020AC
:10AD600038B50C4D0C484FF0FF334FF0FF3224F054
:10AD700049FF2B783BB9FFF7FDFE00F06DF8044664
:10AD800010B901232B700024034824F0B3FF2046A0
:10AD900038BD00BF30C60020280B00202DE9F04749
:10ADA000048FDFF8B0A0013498B006468946A4B2FB
:10ADB00000F10807651EADB2B5F5004F47D04A2334
:10ADC00005AA2946384628F062FD04F57F543F3431
:10ADD000A4B28046214601230DF10B02384628F02B
:10ADE00056FDB8F1000F014610DC002810DC338F4F
:10ADF000AB4209D132466B1E22F8383F4FF4004176
:10AE00000223384628F011FC2C46D3E7002808DC42
:10AE10002946384628F0D7FC2146384628F0D3FC8E
:10AE2000E5E708F160030DEB0308002308F84C3C4C
:10AE30005246CDF8009003AB05A80397ADF810403B
:10AE400028F04FFE0028DFD018B0BDE8F0870020C2
:10AE5000FAE700BF513B05007FB501236946022098
:10AE60000193FEF703FF044660BB02AA01A902207A
:10AE700028F09BFD044610B110F10C0F22D103996C
:10AE8000B1F5803F23D2009A002394681846084405
:10AE900084421AD30133082BF9D10E4DA982EB82DB
:10AEA0005368AB602846D368EB6328F0E9FE04469C
:10AEB00040B9094E6E602846FFF7FAFD28466E60DD
:10AEC000FFF704FE204604B070BD9BB2E5E76FF0CB
:10AED0002004F7E7887800209004002030BFFFF7B7
:10AEE000FDBF00BF2DE9F0410B4EDFF8348006EBCB
:10AEF0000807CC1B05463246084920463FF033FB85
:10AF0000A01942460021083C3FF055FB6C6707F151
:10AF10000800BDE8F08100BF000000003CB406005E
:10AF200008000000054B9A699B689A421FBF044ABB
:10AF3000536843F080535360704700BF24B3002030
:10AF400000ED00E0134B9A6A12F0007F9A6A14BF7A
:10AF50001E201D2012F0807F9A6A18BF1F2012F455
:10AF6000002F9A6A18BF212012F4802F9A6A18BF06
:10AF7000222012F4003F9A6A18BF232012F4803F67
:10AF80009A6A6FEA02426FEA12429A6218BF24205C
:10AF9000704700BF00ED00E010B5194B0246986AFB
:10AFA0009C6A10F4805F14BF1720162014F4006F01
:10AFB0009C6A18BF1820A40509D5986B986A0004EC
:10AFC00004D51AB19A6A22F400429A6219200C4BF5
:10AFD0009A6A12F4806F9A6A18BF1A20D2050CD4AC
:10AFE0009B6A13F4005F18BF1C20054A936A43F460
:10AFF0007F43936200230B7010BD1B20F5E700BF59
:10B0000000ED00E010B51C4B0246986A9C6A10F0F7
:10B01000100F14BF1120102014F0080F9C6A18BFE5
:10B020001220A40709D5586B986A000604D51AB1F6
:10B030009A6A22F080029A6213200F4B9A6A12F0E9
:10B04000010F9A6A18BF142012F0200F9A6A18BFD5
:10B050001520D40658BF9B6A074B9A6A920642BFD6
:10B060005A6A22F400525A629A6A42F0FF029A62C5
:10B0700000230B7010BD00BF00ED00E070B5444B25
:10B080005B689CB00646C3F30803002585F311886E
:10B09000BFF36F8F02F07F40B0F17F4F11D102F00C
:10B0A0000C0008280DD010074CBF0E4601250022C9
:10B0B000033B8DF80720032B05D8DFE803F01E5C67
:10B0C00060592E46F3E700249DF807309BB96822AB
:10B0D000314602A83FF047FA099B002D53D0C3F335
:10B0E000080222B96FEA53236FEA4323099302A9A6
:10B0F000204628F0FAFD1CB070BD254BDA6A910796
:10B10000E1D4DA6A002ADEDBDA6A5200DBD55A695A
:10B11000B16942F480725A61BFF34F8FBFF36F8FF2
:10B120005A6931F8021C22F480725A61BFF34F8FC2
:10B13000BFF36F8F4DF60272914209D09A6AD2B274
:10B1400042B10DF107010120FFF75CFF0446BBE7A8
:10B150003468B9E79A6A12F47F4F05D00DF1070100
:10B160000120FFF719FFF1E79B6AB3F5803FAAD3EF
:10B17000FFF7E8FEEAE70DF107010020E4E70DF133
:10B1800007010020EDE723F4FF7323F00103ADE78F
:10B1900000ED00E0044B5A6942F010025A615A690E
:10B1A00022F008025A61704700ED00E0EFF30880DA
:10B1B000EFF3098101B57246FFF760FF01BD00BFE3
:10B1C00021F064F8202080F3118808484FF40061D2
:10B1D000401880F30988EFF314800221084380F3BC
:10B1E0001488BFF36F8F00F0CDF8000010F9002035
:10B1F000BFF34F8F0549064BCA6802F4E062134360
:10B20000CB60BFF34F8F00BFFDE700BF00ED00E054
:10B210000400FA05084B9B6883420BD1EFF30583CA
:10B2200043B1064B5A6842F080525A605A6A22F47F
:10B2300000425A6225F0D6BB24B3002000ED00E0A6
:10B2400020498A6882F8C1E04FF030001044EFF3E3
:10B25000098C80E8F01F1EF0100F03D102F180006E
:10B2600080EC108A202080F31288BFF36F8F164F76
:10B270004FF000668A698A603E60506F134C206010
:10B2800092F9C1E0906F0023936780F311881EF05C
:10B29000100F03D00023E1EE103A03E002F180002A
:10B2A00090EC108AEFF3148323F0040383F31488E3
:10B2B000BFF36F8F02F1300090E8F01F8CF3098824
:10B2C0007047000024B3002004ED00E0C87800209F
:10B2D0001EF0040F0CBFEFF30880EFF309808169C3
:10B2E00011F8021C0229FFD001B5724628F003FDB7
:10B2F00001BD00BF40B2002807DB044A4109012319
:10B3000000F01F00834042F82130704700E100E068
:10B3100040B200280CDB4309064900F01F0020332F
:10B320000122824041F82320BFF34F8FBFF36F8F7C
:10B33000704700BF00E100E0054B420900F01F002C
:10B3400053F82220012303FA00F01040704700BF99
:10B3500000E100E040B20028A8BF00F1604001F128
:10B360000101B8BF064B4FEA4111ACBF00F5614087
:10B3700000F00F00C9B2B4BF195480F80013704731
:10B3800014ED00E0144A08B5144B22F07F029A60D5
:10B39000BFF34F8FBFF36F8FD3F8882022F4700272
:10B3A000C3F88820D3F8882042F4A002C3F888208C
:10B3B0004FF04042C3F83422BFF34F8FBFF36F8F7B
:10B3C0000023E1EE103A24F063FA25F043FC00F08C
:10B3D0007BF824F09DFA00BF0060020000ED00E061
:10B3E00042F8203C009B42F81C3C019B42F8183C70
:10B3F0000A49029B42F8143C4FF0807342F8043C27
:10B4000021F00101002342F8081C203A83674FF421
:10B410007D430265C0F8C030704700BFF99102005B
:10B42000104B9B6883421AD1EFF30580B8B9EFF354
:10B430001181202282F31288BFF36F8F1A7B22F0D2
:10B4400002021A73EFF3148323F0040383F31488C6
:10B45000BFF36F8F81F31188BFF36F8F70476FF069
:10B460001500704724B3002000B50E461546002392
:10B47000E1EE103AEFF3148323F0040383F314880E
:10B48000BFF36F8FBFF36F8F084B426F9860084B0D
:10B490001A602C4686F309880020064B9847204600
:10B4A000002100220023044C204700BF24B30020C9
:10B4B000C8780020153D0500F9910200014B1022CB
:10B4C0001A61704700ED00E0044800232021C218F3
:10B4D0000133302B82F80013F9D1704700E100E00E
:10B4E00008B5EFF30583064A103B02EBC30152F89F
:10B4F000330049688847BDE80840FFF713BD00BF27
:10B5000098B00600024B034A0348012100F066B8D8
:10B510000000042000000020F8BB0600084AC2F822
:10B5200098000B6823F01F03034343F01003C2F895
:10B530009C308B6843F00103C2F8A030704700BF15
:10B5400000ED00E02DE9F043DFF8608085B00E46A5
:10B550001F4604464FF00009B14523DA6068D8B1B0
:10B560003FB1411E08421BD11F2819D92368194237
:10B5700016D12368019328F0F0FBA36803430393DB
:10B58000D8F89050C5F30725D0B2013DA84207D89E
:10B5900001A9FFF7C3FF421C09F101090C34DBE7E5
:10B5A0006FF01502104605B0BDE8F08300ED00E035
:10B5B000044B0522C3F89420BFF34F8FBFF36F8F66
:10B5C000704700BF00ED00E0BFF35F8F024B002229
:10B5D000C3F89420704700BF00ED00E010B5034CA5
:10B5E00001232278FFF7AEFF207010BD31C6002086
:10B5F0002DE9F043534B544CD3F890302568C3F3F6
:10B6000007239D4285B000F29A80FFF7DDFF0020FE
:10B610000C2685421AD14D4C4D4F25706846FEF7D9
:10B62000CDFADFF82081DFF82C9106460025AE42E6
:10B6300013D1237843490020D1F89020C2F3072288
:10B64000934276DBFFF7B4FF002042E0616806FB1F
:10B650000011FFF763FF0130DBE7009800EB0511F5
:10B660004FEA051CCB683B40B3F5000F48D00AD821
:10B67000B3F5001F30D0B3F5800F36D0B3F5801F7F
:10B6800010D00135D3E7B3F1807F42D0B3F1007F12
:10B69000F7D150F80C3088684A6828F05EFB40F417
:10B6A000802009E050F80C3088684A6828F055FB83
:10B6B00040F0885040F43020CDE901230390D8F8C1
:10B6C00090302078C3F30723013B98422AD96FF0CA
:10B6D000150005B0BDE8F08350F80C3088684A6862
:10B6E00028F03BFB40EA0900E6E750F80C30886898
:10B6F0004A6828F032FB40F0007040F40030DBE78D
:10B7000050F80C3088684A6828F027FB40F08270B7
:10B71000D2E750F80C3088684A6828F01EFB40F0E9
:10B720008870C9E701A9FFF7F9FE23780133237078
:10B73000A7E7C1F89830C1F8A00001337CE74FF0CB
:10B74000FF30C6E700ED00E004BC060031C6002073
:10B750000000F0FF0000081108B50649064821F076
:10B760000701C1F1005202F5802227F095FA00206E
:10B7700008BD00BF5F220120CC78002003484FF0B5
:10B78000FF324FF0FF3324F03DBA00BFA404002085
:10B79000014824F0AFBA00BFA404002038B5054624
:10B7A000FFF7ECFF08482A46082127F079F90446FC
:10B7B00028B925B13FF092FA044B0C221A50FFF73A
:10B7C000E7FF204638BD00BFCC7800200C00000009
:10B7D00010B50446FFF7D2FF2146034827F028F9A9
:10B7E000BDE81040FFF7D4BFCC78002070B5A0FBB7
:10B7F00001543CB92846FFF7D1FF064640B9002660
:10B80000304670BD3FF06AFA044B0C221A50F6E73E
:10B810002A4621463EF0CFFEF2E700BF0C000000B2
:10B8200070B54169867A0B4D044659B1437ADB07FE
:10B8300006D42C2303FB06535B6A1B689B6898475E
:10B84000002363612C20214606FB0050BDE87040B8
:10B850003EF054BBB00C0020024B2C2202FB003007
:10B86000704700BFB00C0020827A064B2C2101FBF0
:10B8700002339A6A1B7F1B33801A23F00303B0FB49
:10B88000F3F07047B00C002038B5074B827A2C24B7
:10B8900004FB02335B6AD3E901240C601568FFF7EF
:10B8A000E3FF04FB005038BDB00C00202DE9F0434D
:10B8B00085B005466846039190461C463EF089FDDA
:10B8C000DDE90067EFF31189202383F31288BFF3CA
:10B8D0006F8F6B8B002B41D02A8B9A4225D9002287
:10B8E0000023284624F056FA0446F0B189F3118863
:10B8F000BFF36F8F039B002B41D032463B46684617
:10B900003EF08BFDA27A264B2C2101FB0233204610
:10B910005B6A1B6803A91D68DDE90023A847606115
:10B9200070BB2046FFF77CFF24E0698B4B1E6B83C6
:10B9300089F31188BFF36F8F2B7F2A8BAC6A1B337F
:10B9400023F00303521A02FB0344154B154AEB1A6A
:10B950009B105343A3722B7FE372CBE789F31188CB
:10B96000BFF36F8F23464246284624F013FA04465D
:10B970000028BFD10024204605B0BDE8F0836361F4
:10B98000012300252381039B6382E27A65602946B7
:10B9900004F118003EF00FFE63692582E360EAE7D8
:10B9A000B00C0020A38B2EBA70B50C4C2C2500B91E
:10B9B00070BD037A4668013BDBB20372002BF7D1FE
:10B9C000C3604360837A05FB03431B6A13B1984746
:10B9D0003046ECE7FFF724FFFAE700BFB00C002089
:10B9E0000E4A0123C2F840354FF080424FF080519B
:10B9F000C2F87835D1F83001082808D1D1F83411CF
:10BA0000052904D80648415C09B1C2F838364FF020
:10BA100080430122C3F880250020704700E00140E8
:10BA200044FB060020B1034B800143F0010318479B
:10BA3000704700BFD0B4060070B50C4BD3E901527B
:10BA40001968D8684A4080EA050485EA02065E6003
:10BA500082EA452281EA04064FEA745408441E60D3
:10BA60009A60DC6001EB706070BD00BFD878002088
:10BA700008B504483EF05DF800280CBF6FF01200D6
:10BA8000002008BDB8AE06002DE9F341DFF888803C
:10BA900098F8003004468F0801F0030553B919489F
:10BAA000194E836810221B683146984790B90123CC
:10BAB00088F8003004EB8707A7421ED13DB1FFF79D
:10BAC000BBFF2A46019001A938463EF04CFD02B06A
:10BAD000BDE8F0812CF0DDF930602CF0DAF90B4B89
